:02000000C02915
:10000800AB00030EAA002D082D18213A8500AD007B
:10001800B10B11282C141030B1000B112A0E8300DB
:08002800AB0E2B0E09000800CD
:10008000220882075D2863286928762884288B281F
:100090009928A828B628B828BC28BE28C028C22875
:1000A000C628C828CA28E4280829262938294A2920
:1000B0005E2973298829A129B9292D082D18213AEB
:1000C0008500AD0008002D08213A8500213A850001
:1000D00008002D08213A8500213A8500CD22051E11
:1000E0000800213A8500213A850008002D08213AB0
:1000F0008500213A850000000000051E0800213A15
:100100008500213A850008002D08213A850000006D
:10011000213A850008002D08213A8500213A850002
:10012000D122051E0800213A8500213A00008500F1
:1001300008002D08213A85000000213A8500D122CF
:10014000051E0800213A8500213A000085000800BC
:100150002D08213A85000000213A8500051E08007F
:10016000213A85000000213A850008000130CE28A0
:100170000230A1002D08D7280230CE280330CE2827
:100180000430CE280630A1002D08D7280730CE280D
:100190000930CE280C30A1002D08D728A1002D0849
:1001A000213A85000000213A8500051E0800213A09
:1001B00085000000213A8500A10BD028213A850056
:1001C0000000213A850008000830A1002D08213ADE
:1001D000850000000000213A8500051E0800213A34
:1001E000850000000000213A8500A10BE728051ECC
:1001F0000800213A850000000000213A8500000037
:100200000000213A850000000000213A8500080026
:100210000730A1002D08213A8500000000000000F1
:10022000213A85000000051E0800213A85000000E3
:1002300000000000213A8500A10B0B29213A85001E
:10024000000000000000213A850008000B30A100EA
:100250002D08213A8500D222213A8500051E08008A
:10026000A10B2929213A8500D222213A85000800D4
:100270000930A1002D08213A8500D122213A8500BC
:10028000051E0800A10B3B29213A8500D122213A05
:10029000850008000730A1002D08213A8500CF22F3
:1002A000213A850000000000051E0800A10B4D2921
:1002B000213A8500CF22213A850008000530A100AF
:1002C0002D08213A8500D222D022213A8500D12260
:1002D000051E0800A10B6129213A8500D222D022F7
:1002E000213A850008000430A1002D08213A85003C
:1002F000CD22D122213A8500CD22051E0800A10B76
:100300007629213A8500CD22D122213A85000800A4
:100310000330A1002D08213A8500CB22213A850027
:10032000D222CF22051E0800A10B8B29213A85007D
:10033000CB22213A85000800213A8500CC22D12227
:10034000A6290230A1002D0805189C29213A850014
:10035000CC22CF22213A8500CD22D022051E0800D2
:10036000A10BA629213A8500CC22CF22213A850073
:1003700008002D082D1C213A8500AD00080008005A
:10038000DB22B1008313203084002E30D32283017E
:10039000C9291C308316850024309F008312223027
:1003A0008500AD00073083129900FF308316950059
:1003B000FF23831690008312AC010330AE002E0899
:1003C000B00007308316810083128101A0308B00BA
:1003D000831209309F00CA22CA229F149F18EE2957
:1003E0001E08A50083122508093EAE000030031840
:1003F0000130AF002F08803A803C031D012A2E08EF
:1004000025020318042A052A0A2A09308312AE009D
:100410002E08A50783122C1C0B2AAC012D082D18C1
:10042000213A8500AD00AD102D088500B8221E08C8
:10043000A700AD142D08850027089A222908A400DA
:1004400025020318A40706302402A3009F14FE30DF
:100450000102031C312A8101B10B312A2C14103006
:10046000B100051A412A9F18332A12302202031CB8
:10047000642A2D082D18213A8500AD001230A20003
:10048000642A9F18412A24081E020318592A0130A1
:10049000B0001E0823020318512AA208031DA2035C
:1004A000632AA201632AA20803195B2A0130B00063
:1004B000632A0319532AB00B632A0330B0001A30A1
:1004C0002202031CA20A4020AC080319262A2C1C75
:1004D0007D2A2D082D1C6F2A213A8500AD00023A95
:1004E00085002C100330B0002C15AC152C16B8224A
:1004F0002D0885001E08A600262AAC1D852A2C1E64
:10050000832A2C12262AAC11262A2C11260827060B
:100510000319262A0330B0002608A7009A222908CA
:10052000A40025020318A40706302402A300262AEB
:10053000262A0028A901A801A807A80DA90DA80727
:100540000318A90A0310A80DA90DA80DA90DA80D3F
:10055000A90DA8070318A90A0310A80DA90DA80D35
:10056000A90DA8070318A90A0310A80DA90D0800D2
:100570000530A100A0019F149F18BC2A1E08FE3E52
:10058000200203180800A10BC62A08001E08A000BC
:10059000BB2A0800D222D222D222D2220800000096
:1005A00000000000080064008001840A04060319AA
:0805B00000340406D42A1034C3
:0A07F40000340634CA344234080011
:02400E00D431AB
:00000001FF
