:10000000ED2A0330A90729088207942A072808281F
:1000100009280A280B28000000000000000000004A
:10002000000000000000000000001928742A672A60
:10003000482A0C18F8229F1422308500051EA62A93
:100040000330850029088207000026282728282851
:1000500029282A28000000000000000000000000FD
:10006000000000000000000022081E0203183828CB
:10007000FF30031C0130A90722308500051EA62A87
:100080000330850043280328AA012C088207AC0A04
:1000900022347F2879287A288E2889288428DD2808
:1000A0002B10D6282B10D0282B10CA282B10C42890
:1000B0002B10BE282B10B8282B10B2282B10AC28E0
:1000C0009128942897289A289D28A028A328A62814
:1000D000A928E62875287528752875287528752893
:1000E000752875283829AC0338292C08553EAA00F4
:1000F000E628B6230330850022308500051A033038
:1001000085002230850022340330850022308500AE
:10011000051A0330850022308500051A033085005A
:100120002234B22085002D29B82085002529BE2043
:1001300085001D29C42085001529CA2085000D29A8
:10014000D02085000529D6208500FD28DD208500EA
:10015000F528E3208500ED280330850000002230DB
:100160008500051A03308500000022308500051A3D
:1001700003308500000022308500051A0330850019
:10018000000022308500051A03308500000022306F
:100190008500051A03308500000022308500051A0D
:1001A00003308500000022308500051A03302B1C27
:1001B0008500850022308500051A033085002B104C
:1001C00022308500051A0330850022340330850073
:1001D000AA1BEA2822308500AA0A051A03308500E6
:1001E000AA1BF22822308500AA0A051A03308500CE
:1001F000AA1BFA2822308500AA0A051A03308500B6
:10020000AA1B022922308500AA0A051A033085009C
:10021000AA1B0A2922308500AA0A051A0330850084
:10022000AA1B122922308500AA0A051A033085006C
:10023000AA1B1A2922308500AA0A051A0330850054
:10024000AA1B222922308500AA0A051A033085003C
:10025000AA1B2A2922308500AA0A051A0330850024
:100260002230080022308500AC03051A44282234CD
:10027000051E3429033085000C18F8229F14223003
:100280008500051E34290330850022081E02000067
:1002900022308500051E342903308500031C3229D5
:1002A000000022308500051E3829033085000C1817
:1002B000F8229F1422308500051E3829033085005E
:1002C00022081E02000022308500051E3829033056
:1002D0008500031C3F29000022308500051E53299C
:1002E0000330850000000C18F8229F14223085008E
:1002F000051E53290330850022081E02000022300B
:100300008500051E532903308500031CCE2A0000FA
:1003100022308500051E6E290330850000000C1870
:10032000F8229F1422308500051E6E2903308500B7
:1003300022081E029B2922308500051E6E290330EB
:100340008500031CD52A000022308500051E8A295D
:100350000330850000000C18F8229F14223085001D
:10036000051E8A290330850022081E02B729223083
:100370008500051E8A2903308500031C9129C029A8
:1003800022308500051EA62903308500C7290C18D8
:10039000F8229F1422308500051EA629033085000F
:1003A00022081E02D32922308500051EA62903300B
:1003B0008500031CAD29DC2922308500051EC229D9
:1003C00003308500E3290C18F8229F1422308500A1
:1003D000051EC2290330850022081E02031CDC2AE8
:1003E000000022308500051EDE2903308500F82933
:1003F00000000C18F8229F1422308500051EDE290B
:100400000330850022081E02031CE42A000022306B
:100410008500051EF329033085000E2A00000C1804
:10042000F8229F1422308500051EF3290330850031
:1004300022081E02031CFB291D2A22308500051EEE
:10044000092A03308500BB230C18F8229F142230A0
:100450008500051E092A0330850022081E02031CA0
:10046000112A322A22308500051E1F2A03308500FA
:10047000BB230C18F8229F1422308500051E1F2A6A
:1004800003308500000022081E02031C262A482A89
:1004900022308500051E342A03308500BA230C184B
:1004A000F8229F1422308500051E342A033085006F
:1004B000592A22081E02031C3B2A5E2A223085008C
:1004C000051E4A2A03308500B9230C18F8229F1410
:1004D00022308500051E4A2A033085006F2A00005D
:1004E00022081E02031C512A752A22308500051E8F
:1004F000602A03308500B8230C18F8229F1422309C
:100500008500051E602A03308500BB2322081E02D9
:10051000031C672A8B2A22308500051E772A0330A8
:1005200085001030A9000328A90A9F14051E1C2865
:10053000051E1C28051E1C2822081E02031C1C2840
:100540000C1C952AF82203308500952A051EAC2A3A
:100550000330850001300228051EB22A03308500D1
:1005600002300228051EB72A033085000128051E27
:10057000BC2A033085000128051EBF2A0128051E5C
:10058000C42A033085000128051EC92A03308500CE
:100590000128051E772A03308500012822308500B6
:1005A000051E382903308500592922308500051E93
:1005B000532903308500752922308500051EA629A0
:1005C00003308500E32AC92922308500051EC2298F
:1005D00003308500EB2AE5290800C423AC00C523BD
:1005E000AD008313203084002C30BC238301512BB9
:1005F000223085000C10AD0B0800203085009F14C0
:10060000B8239F14AD141030A1000230A000082BB5
:100610009F141E08A800A700BB239F141E08A8064D
:10062000A800031D472B2408A8069F140319442B78
:10063000A8061E08A806A800031D472B9F14A7069E
:100640000319362B1E08A806A800031DA001A00A46
:100650009F141E08A806A800031DA001A00A2019C7
:10066000362BA10B282B1E08A807A80C22308500CA
:100670002808A4009F14A41B492B95232608A20038
:1006800023020318A2070800223085000800A001F9
:10069000282B831628089B001C141A088312A2001A
:1006A00008001C308316850004309F00831222301E
:1006B0008500073083129900FF3083169500FF23D1
:1006C000831690008312A401AB01073083168100CA
:1006D00083128E018F0131309000831209309F0008
:1006E0003830A3000C1C722B0C10AD0B722BAD0A12
:1006F000F822AC0A22081E020230031CAC0244207D
:1007000085009F14051E8B2B0C1C792BF8229F143F
:10071000892B0000792B03302C020318AC03051A37
:10072000922B8B2BB9237F2B0028A601A501A507AF
:10073000A50DA60DA5070318A60A0310A50DA60D65
:10074000A50DA60DA50DA60DA50DA60DA5070318B3
:10075000A60A0310A50DA60DA5070318A60A0310E7
:10076000A50DA60D0800BB23BB23BB23BB2308009C
:10077000000000000000080064008001840A0406F4
:0C078000031900340406BD2B01340234C0
:0E07F000F92B080001340034C63442340800EE
:02400E00D431AB
:104200006300630064006500660066006700680084
:10421000690069006A006B006C006D006D006E0043
:104220006F00700070007100720073007400740001
:104230007500760077007700780079007A007A00C0
:104240007B007C007D007E007E007F00800081007E
:10425000810082008300840085008500860087003D
:104260008800880089008A008B008B008C008D00FC
:104270008E008F008F0090009100920092009300BA
:104280009400950096009600970098009900990078
:104290009A009B009C009D009D009E009F00A00036
:1042A000A000A100A200A300A300A400A500A600F6
:1042B000A700A700A800A900AA00AA00AB00AC00B4
:1042C000AD00AE00AE00AF00B000B100B100B20072
:1042D000B300B400B400B500B600B700B800B80031
:1042E000B900BA00BB00BB00BC00BD00BE00BF00EF
:1042F000BF00C000C100C200C200C300C400C500AE
:00000001FF
