:02000000C42A10
:1000100007308500851E013431085A3C82070000F4
:1000200000000000000000000000000000000000D0
:1000300000000000000000000000000000000000C0
:1000400000000000000000000000000000000000B0
:1000500000000000000000009F142E280000013066
:100060008500851E01340C180134073085003108E5
:100070005A3C820700000000000000000000000061
:100080000000000000000000000000000000000070
:100090000000000000000000000000000000000060
:1000A0000000000000000000000000000000B10A95
:1000B00029081E020230031CB102013085003108FC
:1000C0008207B10A0134C528BF28C028D428CF2808
:1000D000CA280D2AAF10062AAF10002AAF10FA293D
:1000E000AF10F429AF10EE29AF10E829AF10E229C4
:1000F000AF10DC29D728DA28DD28E028E328E62815
:10010000E928EC28EF28162AF228FB2804290D29D3
:1001100016291B29272933293F294B294F295A29D9
:10012000652970297B297F298A299529A029A42955
:10013000AF29BA29BE29C929CD29D82908280828D4
:10014000082808280828082808280828082808282F
:10015000082808280828082808280828082808281F
:10016000082808280828082808280828082808280F
:1001700008280828082808280734B10307349D23D5
:100180000730850001308500851A07308500013071
:10019000850001340730850001308500851A07305D
:1001A000850001308500851A073085000134E22181
:1001B0008500542AE82185004D2AEE218500462A33
:1001C000F42185003F2AFA218500382A0022850083
:1001D000312A062285002A2A0D228500232A13228D
:1001E00085001C2A24228500851E01340130A800C8
:1001F00007308500592A32228500851E01340330DC
:10020000A80007308500592A40228500851E013448
:100210000530A80007308500592A4E228500851E2A
:1002200001340730A80007308500592A0930A8009A
:1002300007308500592A0730A80007308500592269
:100240008500851E0134073085000130632A0530A2
:10025000A8000730850059228500851E013407302B
:1002600085000330632A0330A80007308500592237
:100270008500851E0134073085000530632A013072
:10028000A8000730850059228500851E01340730FB
:1002900085000730632A073085000930632A07305C
:1002A0008500073063228500851E013407308500F4
:1002B00001306E2A07308500053063228500851ED7
:1002C00001340730850003306E2A07308500033083
:1002D00063228500851E01340730850005306E2AB3
:1002E00007308500013063228500851E0134073008
:1002F000850007306E2A0730850009306E2A0730E6
:10030000850007306E228500851E01340730850088
:1003100001307B2A0730850004306E228500851E5F
:1003200001340730850004307B2A07308500013016
:100330006E228500851E01340730850007307B2A38
:100340000730850009307B2A0730850006307B2284
:100350008500851E01340730850002308A2A073067
:10036000850002307B228500851E01340730850020
:1003700006308A2A0730850009308A2A073085002E
:1003800004308A228500851E013407308500043040
:100390009B2A0730850009309B2A073085000430EE
:1003A0009B228500851E0134073085000430AE2A6B
:1003B000073085000930AE2A073085000000013083
:1003C0008500851A07308500000001308500851AF8
:1003D00007308500000001308500851A0730850050
:1003E000000001308500851A0730850000000130CB
:1003F0008500851A07308500000001308500851AC8
:1004000007308500000001308500851A0730AF1CD9
:100410008500850001308500851A07308500AF1002
:1004200001308500851A07308500013407308500CA
:10043000192A013085000000851A07308500202A1E
:10044000013085000000851A07308500272A013019
:1004500085000000851A073085002E2A01308500AE
:100460000000851A07308500352A0130850000001C
:10047000851A073085003C2A013085000000851A66
:1004800007308500432A013085000000851A0730B7
:1004900085004A2A013085000000851A0730850052
:1004A000512A013085000000851A0730850001308F
:1004B0000800000001308500851E013407308500EA
:1004C000A80B5A2A0134A80001308500851E01348A
:1004D000073085000000A80B642A0134A800000042
:1004E00001308500851E013407308500851E0134EA
:1004F000A80B702A0134A800851E01340130850044
:10050000851E0134073085000000851E0134A80BCC
:100510007E2A0134A800851E0134000001308500C8
:10052000851E013407308500851E0134851E013487
:10053000A80B8E2A0134A800851E0134851E0134C3
:1005400001308500851E013407308500851E013489
:10055000851E01340000A80BA02A0134A800851EC6
:100560000134851E0134000001308500851E0134F0
:1005700007308500851E0134851E0134851E013437
:10058000A80BB42A01340800A323B100A423B200AD
:10059000A701A801A901AA01AB01AC01AD01AE01FF
:1005A000AF01B0018301D42A3830831685000830AA
:1005B0009F00831201308500073083129900FF30BD
:1005C00083169500FF23831690008312B001AF01BC
:1005D00007308316810083128E018F013130900025
:1005E00083120D309F003830AA000C1CF52A0C1025
:1005F000B20BF52AB2143F232E08AB002B087C2344
:100600002D08A9002A020318A9079F140C10851AA7
:10061000122B851E2F2B3014B10A29081E0202301E
:10062000031CB1025F2085009F140C1C092BB20B28
:10063000052BB2143F232E082B060319052B9F14FC
:100640002E08AB00851E262B5F2085002B087C23FF
:100650009F142D08A9002A020318A907052B0130B1
:100660008500301C142BB10329081E020318B103A6
:10067000B103B11BB101B10A3010142B00280130B5
:100680008500003085001F3084009F140730A800CB
:10069000A701A70AAE01840A1E089F148000AE06B7
:1006A000AE00031DA701A70A2719772B1E089F1468
:1006B0008007800CAE06AE00031DA701A70A27190C
:1006C000772BA80B4B2B013085009F140008840367
:1006D0008007000CA80084039F140008840380078F
:1006E000000CAE0028089F14AE07AE0C08000130C5
:1006F00085009F1408000800AD01AC01AC07AC0DEB
:10070000AD0DAC070318AD0A0310AC0DAD0DAC0D6B
:10071000AD0DAC0DAD0DAC0DAD0DAC070318AD0AB4
:100720000310AC0DAD0DAC070318AD0A0310AC0DF2
:10073000AD0D0800A223A223A223A22308000000DB
:0A074000000000000800013402343C
:0A07F40000340A34C634463408000D
:02400E00D431AB
:00000001FF
