:02000000B6291F
:100080002C0882075F28602864286A28772884283B
:100090008B289928A828B628B828BC28BE28C028AC
:1000A000C228C628C828CA28E42803291E293029BE
:1000B000422955296A297F299829B129B029AC0AF2
:1000C00001308500AB0008002B08063A8500063A8F
:1000D000850008002B08063A8500063A8500BF22F5
:1000E000851E0800063A8500063A850008002B08A0
:1000F000063A8500063A85007D28851E0800063AE6
:100100008500063A850008002B08063A85000000A5
:10011000063A850008002B08063A8500063A850055
:10012000C322851E0800063A8500063A00008500B5
:1001300008002B08063A85000000063A8500C32215
:10014000851E0800063A8500063A00008500080072
:100150002B08063A85000000063A8500851E080037
:10016000063A85000000063A850008000130CE28D6
:100170000230A1002B08D7280230CE280330CE2829
:100180000430CE280630A1002B08D7280730CE280F
:100190000930CE280C30A1002B08D728A1002B084D
:1001A000063A85000000063A8500851E0800063ADA
:1001B00085000000063A8500A10BD028063A85008C
:1001C0000000063A850008000830A1002B08063A16
:1001D0008500EA28063A8500851E0800063A850053
:1001E000F128063A8500A10BE728851E0800063A8B
:1001F0008500FA28063A8500FD28063A8500002980
:10020000063A850008000730A1002B08063A850051
:1002100009290000063A85000000851E0800063AFC
:10022000850012290000063A8500A10B0629063A2E
:1002300085001A290000063A850008000B30A1004D
:100240002B08063A8500C422063A8500851E080060
:10025000A10B2129063A8500C422063A8500080030
:100260000930A1002B08063A8500C322063A850012
:10027000851E0800A10B3329063A8500C322063AE1
:10028000850008000730A1002B08063A8500C1222E
:10029000063A85004B29851E0800A10B4529063A20
:1002A0008500C122063A850008000530A1002B0810
:1002B000063A8500C422C222063A8500C322851E62
:1002C0000800A10B5829063A8500C422C222063A2A
:1002D000850008000430A1002B08063A8500BF22E3
:1002E000C322063A8500BF22851E0800A10B6D2996
:1002F000063A8500BF22C322063A85000800033073
:10030000A1002B08063A8500BD22063A8500C422CA
:10031000C122851E0800A10B8229063A8500BD2254
:10032000063A85000800063A8500BE22C3229D29B0
:100330000230A1002B0885189329063A8500BE22B9
:10034000C122063A8500BF22C222851E0800A10BE9
:100350009D29063A8500BE22C122063A8500080082
:10036000AC0307308500AB0008000800CD22AC00CC
:10037000CE22AD008313203084002C30C5228301AF
:10038000C12938308316850028309F008312013040
:100390008500AB00073083129900FF30831695006B
:1003A000FF23831690008312AA01A9010730831648
:1003B0008100831281018B0183120D309F00BC22CA
:1003C000BC229F149F18E2291E08A400831224084F
:1003D000093EAE00003003180130AF002F08803A0C
:1003E000803C031DF5292E0824020318F829F92959
:1003F000FE2909308312AE002E08A40783120B1DBC
:10040000FF290B11AD0BFF291030AD000130850025
:10041000AB0000308500AB00AA221E08A6002B14FA
:100420002B088500260890222808A3002402031820
:10043000A30706302302A2009F141E2A0000851E77
:100440007F2A2A14AC0A23081E020230031CAC02C5
:1004500040209F140B1D1F2A29180800AD0B7C2A71
:100460001030AD00291401308500AB00003085004C
:10047000AB00AA2201308500AB001E08A5009F1426
:1004800000001F222508260603197B2AA801A701C0
:100490009F1400001F222508A600A707A70DA80D7E
:1004A000A7070318A80A0310A70DA80D9F140000A2
:1004B0001F2225080310A70DA80D0310A70DA80DD6
:1004C0000310A70DA80D0310A70DA80D9F14000081
:1004D0001F222508A7070318A80A0310A70DA80DB7
:1004E0002808A30024020318A3079F1400001F225A
:1004F00006302302A20029109F140B111F2A01307D
:100500008500AB002A1C292AAC0323081E0203180D
:10051000AC03AC03AC1BAC01AC0A2A10292A00289E
:10052000A801A701A707A70DA80DA7070318A80AE8
:100530000310A70DA80DA70DA80DA70DA80DA70DB9
:10054000A80DA70DA80DA7070318A80A0310A70D4B
:10055000A80D08000530A100A0019F149F18AE2A25
:100560001E08FE3E200203180800A10BB82A08004E
:100570001E08A000AD2A0800C422C422C422C4223E
:100580000800000000000000080064008001840AE8
:0E0590000406031900340406C62A0134103490
:0A07F40000340834C2344634080013
:02400E00D431AB
:00000001FF
