:02000000B6291F
:100080002C0882075F28602864286A28772884283B
:100090008B289928A828B628B828BC28BE28C028AC
:1000A000C228C628C828CA28E42803291E293029BE
:1000B000422955296A297F299829B129B029AC0AF2
:1000C00022308500AB0008002B08213A8500213A38
:1000D000850008002B08213A8500213A8500BF22BF
:1000E000051E0800213A8500213A850008002B08EA
:1000F000213A8500213A85007D28051E0800213A15
:100100008500213A850008002B08213A850000006F
:10011000213A850008002B08213A8500213A850004
:10012000C322051E0800213A8500213A00008500FF
:1001300008002B08213A85000000213A8500C322DF
:10014000051E0800213A8500213A000085000800BC
:100150002B08213A85000000213A8500051E080081
:10016000213A85000000213A850008000130CE28A0
:100170000230A1002B08D7280230CE280330CE2829
:100180000430CE280630A1002B08D7280730CE280F
:100190000930CE280C30A1002B08D728A1002B084D
:1001A000213A85000000213A8500051E0800213A09
:1001B00085000000213A8500A10BD028213A850056
:1001C0000000213A850008000830A1002B08213AE0
:1001D0008500EA28213A8500051E0800213A85009D
:1001E000F128213A8500A10BE728051E0800213AD5
:1001F0008500FA28213A8500FD28213A850000294A
:10020000213A850008000730A1002B08213A85001B
:1002100009290000213A85000000051E0800213A46
:10022000850012290000213A8500A10B0629213AF8
:1002300085001A290000213A850008000B30A10032
:100240002B08213A8500C422213A8500051E0800AA
:10025000A10B2129213A8500C422213A85000800FA
:100260000930A1002B08213A8500C322213A8500DC
:10027000051E0800A10B3329213A8500C322213A2B
:10028000850008000730A1002B08213A8500C12213
:10029000213A85004B29051E0800A10B4529213A6A
:1002A0008500C122213A850008000530A1002B08F5
:1002B000213A8500C422C222213A8500C322051EAC
:1002C0000800A10B5829213A8500C422C222213AF4
:1002D000850008000430A1002B08213A8500BF22C8
:1002E000C322213A8500BF22051E0800A10B6D29FB
:1002F000213A8500BF22C322213A8500080003303D
:10030000A1002B08213A8500BD22213A8500C42294
:10031000C122051E0800A10B8229213A8500BD22B9
:10032000213A85000800213A8500BE22C3229D297A
:100330000230A1002B0805189329213A8500BE221E
:10034000C122213A8500BF22C222051E0800A10B4E
:100350009D29213A8500BE22C122213A850008004C
:10036000AC0303308500AB0008000800CD22AC00D0
:10037000CE22AD008313203084002C30C5228301AF
:10038000C1291C308316850024309F00831222303F
:100390008500AB00073083129900FF30831695006B
:1003A000FF23831690008312AA01A9010730831648
:1003B0008100831281018B01831209309F00BC22CE
:1003C000BC229F149F18E2291E08A400831224084F
:1003D000093EAE00003003180130AF002F08803A0C
:1003E000803C031DF5292E0824020318F829F92959
:1003F000FE2909308312AE002E08A40783120B1DBC
:10040000FF290B11AD0BFF291030AD002230850004
:10041000AB0020308500AB00AA221E08A600AB145A
:100420002B088500260890222808A3002402031820
:10043000A30706302302A2009F141E2A0000051EF7
:100440007F2A2A14AC0A23081E020230031CAC02C5
:1004500040209F140B1D1F2A29180800AD0B7C2A71
:100460001030AD00291422308500AB00203085000B
:10047000AB00AA2222308500AB001E08A5009F1405
:1004800000001F222508260603197B2AA801A701C0
:100490009F1400001F222508A600A707A70DA80D7E
:1004A000A7070318A80A0310A70DA80D9F140000A2
:1004B0001F2225080310A70DA80D0310A70DA80DD6
:1004C0000310A70DA80D0310A70DA80D9F14000081
:1004D0001F222508A7070318A80A0310A70DA80DB7
:1004E0002808A30024020318A3079F1400001F225A
:1004F00006302302A20029109F140B111F2A22305C
:100500008500AB002A1C292AAC0323081E0203180D
:10051000AC03AC03AC1BAC01AC0A2A10292A00289E
:10052000A801A701A707A70DA80DA7070318A80AE8
:100530000310A70DA80DA70DA80DA70DA80DA70DB9
:10054000A80DA70DA80DA7070318A80A0310A70D4B
:10055000A80D08000530A100A0019F149F18AE2A25
:100560001E08FE3E200203180800A10BB82A08004E
:100570001E08A000AD2A0800C422C422C422C4223E
:100580000800000000000000080064008001840AE8
:0E0590000406031900340406C62A0134103490
:0A07F40000340834C2344234080017
:02400E00D431AB
:00000001FF
