:10000000EF2A0330A80728088207942A072808281F
:1000100009280A280B28000000000000000000004A
:10002000000000000000000000001928742A672A60
:10003000482A0C1800239F1401308500851EA62A2B
:10004000073085002808820700002628272828284E
:1000500029282A28000000000000000000000000FD
:10006000000000000000000023081E0203183828CA
:10007000FF30031C0130A80701308500851EA62A29
:100080000730850043280328A9012B088207AB0A03
:1000900001347F2879287A288E2889288428DD2829
:1000A0002A10D6282A10D0282A10CA282A10C42894
:1000B0002A10BE282A10B8282A10B2282A10AC28E4
:1000C0009128942897289A289D28A028A328A62814
:1000D000A928E62875287528752875287528752893
:1000E000752875283829AB0338292B08553EA900F7
:1000F000E628A4230730850001308500851A0730E3
:10010000850001308500013407308500013085000D
:10011000851A0730850001308500851A0730850073
:100120000134B22085002D29B82085002529BE2064
:1001300085001D29C42085001529CA2085000D29A8
:10014000D02085000529D6208500FD28DD208500EA
:10015000F528E3208500ED280730850000000130F8
:100160008500851A07308500000001308500851A5A
:1001700007308500000001308500851A07308500B2
:10018000000001308500851A07308500000001302D
:100190008500851A07308500000001308500851A2A
:1001A00007308500000001308500851A07302A1CC1
:1001B0008500850001308500851A073085002A10EA
:1001C00001308500851A073085000134073085002D
:1001D000A91BEA2801308500A90A851A0730850085
:1001E000A91BF22801308500A90A851A073085006D
:1001F000A91BFA2801308500A90A851A0730850055
:10020000A91B022901308500A90A851A073085003B
:10021000A91B0A2901308500A90A851A0730850023
:10022000A91B122901308500A90A851A073085000B
:10023000A91B1A2901308500A90A851A07308500F3
:10024000A91B222901308500A90A851A07308500DB
:10025000A91B2A2901308500A90A851A07308500C3
:100260000130080001308500AB03851A44280134B1
:10027000851E3429073085000C1800239F14013097
:100280008500851E34290730850023081E020000E2
:1002900001308500851E342907308500031C322972
:1002A000000001308500851E3829073085000C18B4
:1002B00000239F1401308500851E382907308500F2
:1002C00023081E02000001308500851E38290730F2
:1002D0008500031C3F29000001308500851E53293D
:1002E0000730850000000C1800239F1401308500A2
:1002F000851E53290730850023081E0200000130A7
:100300008500851E532907308500031CD02A000074
:1003100001308500851E6E290730850000000C180D
:1003200000239F1401308500851E6E29073085004B
:1003300023081E029B2901308500851E6E29073087
:100340008500031CD72A000001308500851E8A29FC
:100350000730850000000C1800239F140130850031
:10036000851E8A290730850023081E02B72901301F
:100370008500851E8A2907308500031C9129C02924
:1003800001308500851EA62907308500C7290C1875
:1003900000239F1401308500851EA62907308500A3
:1003A00023081E02D32901308500851EA6290730A7
:1003B0008500031CAD29DC2901308500851EC2297A
:1003C00007308500E3290C1800239F1401308500B5
:1003D000851EC2290730850023081E02031CDE2A61
:1003E000000001308500851EDE2907308500F829D0
:1003F00000000C1800239F1401308500851EDE29A3
:100400000730850023081E02031CE62A0000013085
:100410008500851EF329073085000E2A00000C1880
:1004200000239F1401308500851EF32907308500C5
:1004300023081E02031CFB291D2A01308500851E8E
:10044000092A07308500A9230C1800239F140130C6
:100450008500851E092A0730850023081E02031C1B
:10046000112A322A01308500851E1F2A0730850097
:10047000A9230C1800239F1401308500851E1F2A14
:1004800007308500000023081E02031C262A482A84
:1004900001308500851E342A07308500A8230C18FA
:1004A00000239F1401308500851E342A0730850003
:1004B000592A23081E02031C3B2A5E2A01308500AC
:1004C000851E4A2A07308500A7230C1800239F1495
:1004D00001308500851E4A2A073085006F2A0000FA
:1004E00023081E02031C512A752A01308500851E2F
:1004F000602A07308500A6230C1800239F140130C2
:100500008500851E602A07308500A92323081E0266
:10051000031C672A8B2A01308500851E772A073045
:1005200085001030A8000328A80A9F14851E1C28E7
:10053000851E1C28851E1C2823081E02031C1C283F
:100540000C1C952A002307308500952A851EAC2AAD
:100550000730850001300228851EB22A0730850049
:1005600002300228851EB72A073085000128851E23
:10057000BC2A073085000128851EC12A0730850066
:100580000128851EC62A073085000128851ECB2A32
:10059000073085000128851E772A0730850001284D
:1005A00001308500851E3829073085005929013022
:1005B0008500851E53290730850075290130850087
:1005C000851EA62907308500E52AC9290130850046
:1005D000851EC22907308500ED2AE5290800F82389
:1005E000AB00F923AC00A001A101A201A301A40169
:1005F000A501A601A701A801A901AA0183015D2BFC
:10060000013085000C10AC0B0800003085009F14F1
:10061000A6239F14AC141030A2000230A1002708BA
:10062000A5009F141E08A700A600A9239F141E085A
:10063000A706A700031D502B2508A7069F14031922
:100640004C2BA7061E08A706A700031D502B9F14BE
:10065000A60603193F2B1E08A706A700031DA1012C
:10066000A10A9F141E08A706A700031DA101A10A45
:1006700021193F2BA20B312B1E08A707A70C013015
:1006800085009F14A71F522B831627089B001C145C
:100690001A088312A3000800A7060130850008008D
:1006A000A101312B8316270D9B001C141A0C8312F9
:1006B000A30024020318A30708003830831685001E
:1006C00008309F00831201308500073083129900A3
:1006D000FF3083169500FF23831690008312A70135
:1006E000AA0107308316810083128E018F013130F9
:1006F000900083120D309F003830A4000C1C7E2B1C
:100700000C10AC0B7E2BAC0A0023AB0A23081E0294
:100710000230031CAB02442085009F14851E972BDA
:100720000C1C852B00239F14952B0000852B033078
:100730002B020318AB03851A9E2B972BA7238B2B19
:100740000028A923A923A923A92308000000000049
:04075000000008009D
:1007EC00F72B08000134023401340334C23446348C
:0207FC000800F3
:02400E00D431AB
:104200006100610062006300640064006500660094
:1042100067006700680069006A006A006B006C0054
:104220006D006D006E006F00700070007100720014
:1042300073007300740075007600760077007800D4
:1042400079007A007A007B007C007D007D007E0092
:104250007F00800080008100820083008300840052
:1042600085008600860087008800890089008A0012
:104270008B008C008C008D008E008F008F009000D2
:104280009100920093009300940095009600960090
:1042900097009800990099009A009B009C009C0050
:1042A0009D009E009F009F00A000A100A200A20010
:1042B000A300A400A500A500A600A700A800A800D0
:1042C000A900AA00AB00AC00AC00AD00AE00AF008E
:1042D000AF00B000B100B200B200B300B400B5004E
:1042E000B500B600B700B800B800B900BA00BB000E
:1042F000BB00BC00BD00BE00BE00BF00C000C100CE
:00000001FF
