:0200000078295D
:10000800AB00030EAA002D082D18213A8500AD007B
:10001800B10B11282C141030B1000B112A0E8300DB
:08002800AB0E2B0E09000800CD
:10008000220882075D286328692875288128882826
:100090009428A128A328A528A728A928AB28AD28FB
:1000A000AF28B128B328C428D628EA28FB280D2970
:1000B0001E29312945295C2971292D082D18213A3D
:1000C0008500AD0008002D08213A8500213A850001
:1000D00008002D08213A8500213A85008B228922CB
:1000E000213A8500213A850008002D08213A850033
:1000F000213A85008B22213A8500213A8500AD0006
:1001000008002D08213A85000000213A85000800EA
:100110002D08213A8500213A85008822213A850060
:10012000213A0000850008002D08213A85000000D2
:10013000213A85008822213A8500213A0000850075
:1001400008000130B5280230B5280330B528043046
:10015000B5280630B5280830B5280B30B5280E3044
:10016000B5281230B5281730B528A1002D08213A3E
:1001700085000000213A8500A10BB728213A8500AF
:100180000000213A850008001130A1002D08213A15
:10019000850000000000213A8500A10BC728213A04
:1001A000850000000000213A850008000E30A10003
:1001B0002D08213A8500000000000000213A85004A
:1001C000A10BD928213A8500000000000000213A47
:1001D000850008000B30A1002D08213A85008B22F4
:1001E000213A85000000A10BED28213A85008B22E1
:1001F000213A850008000930A1002D08213A850028
:100200008A22213A850000000000A10BFE28213A35
:1002100085008A22213A850008000730A1002D08B8
:10022000213A85008822213A85008B22A10B1029D2
:10023000213A85008822213A850008000530A10076
:100240002D08213A85008B228922213A85008822B7
:10025000A10B2129213A85008B228922213A850090
:1002600008000430A1002D08213A850086228A2248
:10027000213A85008B228922A10B3429213A85005D
:1002800086228A22213A850008000330A1002D0829
:10029000213A85008422213A850086228A22A10BF8
:1002A0004829213A85008422213A85000800213A14
:1002B000850085228A2261290230A1002D080518B7
:1002C0005729213A850085228822213A85008422F7
:1002D000A10B6129213A850085228822213A8500D7
:1002E00008002D082D1C213A8500AD0008000800EB
:1002F0009422B1008313203084002E308C2283019D
:1003000081291C308316850024309F0083122230FF
:100310008500AD00073083129900FF3083169500E9
:10032000FF23831690008312AC010330AE002E0829
:10033000B00007308316810083128101A0308B004A
:10034000831209309F00832283229F149F18A629BD
:100350001E08A50083122508093EAE0000300318D0
:100360000130AF002F08803A803C031DB9292E08C8
:1003700025020318BC29BD29C22909308312AE0009
:100380002E08A50783122C1CC329AC012D082D189B
:10039000213A8500AD00AD102D08850071221E08A0
:1003A000A700AD142D088500270853222908A400B2
:1003B00025020318A40706302402A3009F14FE3070
:1003C0000102031CE9298101B10BE9292C14103029
:1003D000B100051AF9299F18EB2912302202031CDB
:1003E0001C2A2D082D18213A8500AD001230A200DC
:1003F0001C2A9F18F92924081E020318112A01300B
:10040000B0001E0823020318092AA208031DA20334
:100410001B2AA2011B2AA2080319132A0130B000CB
:100420001B2A03190B2AB00B1B2A0330B0001A3009
:100430002202031CA20A4020AC080319DE292C1C4E
:10044000362A2D082D18213A8500AD00AD102D0853
:100450008500AD142C100330B0002C15AC152C16F3
:1004600071222D0885001E08A600DE29AC1D3E2A3B
:100470002C1E3C2A2C12DE29AC11DE292C11260858
:1004800027060319DE290330B0002608A7005322EF
:100490002908A40025020318A40706302402A3009B
:1004A000DE29DE290028A901A801A807A80DA90DA9
:1004B000A8070318A90A0310A80DA90DA80DA90DD6
:1004C000A80DA90DA80DA90DA8070318A90A0310C6
:1004D000A80DA90DA8070318A90A0310A80DA90DB6
:1004E00008000530A100A0019F149F18752A1E085E
:1004F000FE3E200203180800A10B7F2A08001E08F8
:10050000A000742A08008B228B228B228B220800E9
:10051000000000000000080064008001840A040656
:0A0520000319003404068D2A10347C
:0A07F40000340534C6344234080016
:02400E00D431AB
:00000001FF
