:02000000852950
:10000800AB00030EAA003008FE398500B000B40B1F
:1000180010282C141030B4000B112A0E8300AB0EDC
:060028002B0E0900080088
:10008000220882075D2862286928762882288A2823
:100090009728A528A728A928AB28AD28AF28B128DC
:1000A000B328B528B728C928DC28F1280329162940
:1000B00028293C29512969297F293008FE398500E2
:1000C000B0000800300801388500FE398500B00016
:1000D0000800300801388500FE3985009222902200
:1000E00001388500FE398500B0000800300801386D
:1000F0008500FE398500922201388500FE39850091
:10010000B00008003008013885000000FE39850085
:10011000B0000800300801388500FE3985008F22C4
:1001200001388500FE3900008500B0000800300865
:10013000013885000000FE3985008F2201388500D6
:10014000FE3900008500B00008000130B9280230F7
:10015000B9280330B9280430B9280630B928083046
:10016000B9280B30B9280E30B9281230B928173009
:10017000B928A1003008013885000000FE3985004B
:10018000A10BBB28B000013885000000FE398500B6
:1001900008001130A100300801388500000000007F
:1001A000FE398500A10BCC28B00001388500000085
:1001B0000000FE39850008000E30A100300801382B
:1001C0008500000000000000FE398500A10BDF283B
:1001D000B00001388500000000000000FE398500F5
:1001E00008000B30A1003008013885009222FE394A
:1001F00085000000A10BF428B00001388500922290
:10020000FE39850008000930A1003008013885005A
:100210009122FE39850000000000A10B0629B000E4
:10022000013885009122FE39850008000730A100C1
:100230003008013885008F22FE3985009222A10BFB
:100240001929B000013885008F22FE398500080089
:100250000530A10030080138850092229022FE3935
:1002600085008F22A10B2B29B00001388500922236
:100270009022FE39850008000430A10030080138C2
:1002800085008D229122FE39850092229022A10BB9
:100290003F29B000013885008D229122FE3985006A
:1002A00008000330A1003008013885008B22FE3998
:1002B00085008D229122A10B5429B00001388500C0
:1002C0008B22FE3985000800FE3985008C229122A0
:1002D0006E290230A1003008051864290138850014
:1002E0008C228F22FE3985008B22A10B6E29B00053
:1002F000013885008C228F22FE39850008003008E5
:1003000001388500B000080008009B22B400831368
:10031000203084003130932283018E291C308316D3
:10032000850024309F0083128501831690010730D9
:1003300083129900FF3083169500FF2383169000E7
:1003400083120508B1003108B000AF01AC01AE0165
:10035000AD010330B1003108B300073083168100CE
:1003600083128101A0308B00831209309F00B014EA
:10037000300885008A228A229F149F18BD291E08F2
:10038000A50083122508093EB10000300318013092
:10039000B2003208803A803C031DD0293108250282
:1003A0000318D329D429D92909308312B10031087F
:1003B000A50783122C1CDA29AC013008FE39850010
:1003C000B000B0103008850078221E08A700B014D5
:1003D0003008850027085A222908A400250203189E
:1003E000A40706302402A3009F14FE300102031C60
:1003F000FF298101B40BFF292C141030B4009F1881
:10040000FF2924081E020318172A0130B3001E0812
:10041000230203180F2AA208031DA203212AA20106
:10042000212AA2080319192A0130B300212A03192D
:10043000112AB30B212A0330B3001A302202031C05
:10044000A20A4020AC080319F4292C1C3B2A3008CE
:10045000FE398500B000B01030088500B0142C10B3
:100460000330B3002C15AC152C167822300885000B
:100470001E08A600F429AC1D432A2C1E412A2C126A
:10048000F429AC11F4292C1D582A2C112608270612
:100490000319F4290330B3002608A7005A222908BB
:1004A000A40025020318A40706302402A300F4299F
:1004B000F4290028A901A801A807A80DA90DA807DB
:1004C0000318A90A0310A80DA90DA80DA90DA80DC0
:1004D000A90DA80DA90DA8070318A90A0310A80DB6
:1004E000A90DA8070318A90A0310A80DA90D080053
:1004F0000530A100A0019F149F187C2A1E08FE3E13
:10050000200203180800A10B862A08001E08A0007C
:100510007B2A080092229222922292220800000056
:1005200000000000080064008001840A040603192A
:0805300000340406942A103483
:0A07F40000340334C6344134080019
:02400E00D431AB
:00000001FF
