:10000000EF2A0330A70727088207942A0728082821
:1000100009280A280B28000000000000000000004A
:10002000000000000000000000001928742A672A60
:10003000482A0C18FF229F1422308500051EA62A8C
:100040000330850027088207000026282728282853
:1000500029282A28000000000000000000000000FD
:10006000000000000000000022081E0203183828CB
:10007000FF30031C0130A70722308500051EA62A89
:100080000330850043280328A8012A088207AA0A0A
:1000900022347F2879287A288E2889288428DD2808
:1000A0002910D6282910D0282910CA282910C42898
:1000B0002910BE282910B8282910B2282910AC28E8
:1000C0009128942897289A289D28A028A328A62814
:1000D000A928E62875287528752875287528752893
:1000E000752875283829AA0338292A08553EA800FA
:1000F000E628A2230330850022308500051A03304C
:1001000085002230850022340330850022308500AE
:10011000051A0330850022308500051A033085005A
:100120002234B22085002D29B82085002529BE2043
:1001300085001D29C42085001529CA2085000D29A8
:10014000D02085000529D6208500FD28DD208500EA
:10015000F528E3208500ED280330850000002230DB
:100160008500051A03308500000022308500051A3D
:1001700003308500000022308500051A0330850019
:10018000000022308500051A03308500000022306F
:100190008500051A03308500000022308500051A0D
:1001A00003308500000022308500051A0330291C29
:1001B0008500850022308500051A0330850029104E
:1001C00022308500051A0330850022340330850073
:1001D000A81BEA2822308500A80A051A03308500EA
:1001E000A81BF22822308500A80A051A03308500D2
:1001F000A81BFA2822308500A80A051A03308500BA
:10020000A81B022922308500A80A051A03308500A0
:10021000A81B0A2922308500A80A051A0330850088
:10022000A81B122922308500A80A051A0330850070
:10023000A81B1A2922308500A80A051A0330850058
:10024000A81B222922308500A80A051A0330850040
:10025000A81B2A2922308500A80A051A0330850028
:100260002230080022308500AA03051A44282234CF
:10027000051E3429033085000C18FF229F142230FC
:100280008500051E34290330850022081E02000067
:1002900022308500051E342903308500031C3229D5
:1002A000000022308500051E3829033085000C1817
:1002B000FF229F1422308500051E38290330850057
:1002C00022081E02000022308500051E3829033056
:1002D0008500031C3F29000022308500051E53299C
:1002E0000330850000000C18FF229F142230850087
:1002F000051E53290330850022081E02000022300B
:100300008500051E532903308500031CD02A0000F8
:1003100022308500051E6E290330850000000C1870
:10032000FF229F1422308500051E6E2903308500B0
:1003300022081E029B2922308500051E6E290330EB
:100340008500031CD72A000022308500051E8A295B
:100350000330850000000C18FF229F142230850016
:10036000051E8A290330850022081E02B729223083
:100370008500051E8A2903308500031C9129C029A8
:1003800022308500051EA62903308500C7290C18D8
:10039000FF229F1422308500051EA6290330850008
:1003A00022081E02D32922308500051EA62903300B
:1003B0008500031CAD29DC2922308500051EC229D9
:1003C00003308500E3290C18FF229F14223085009A
:1003D000051EC2290330850022081E02031CDE2AE6
:1003E000000022308500051EDE2903308500F82933
:1003F00000000C18FF229F1422308500051EDE2904
:100400000330850022081E02031CE62A0000223069
:100410008500051EF329033085000E2A00000C1804
:10042000FF229F1422308500051EF329033085002A
:1004300022081E02031CFB291D2A22308500051EEE
:10044000092A03308500A7230C18FF229F142230AD
:100450008500051E092A0330850022081E02031CA0
:10046000112A322A22308500051E1F2A03308500FA
:10047000A7230C18FF229F1422308500051E1F2A77
:1004800003308500000022081E02031C262A482A89
:1004900022308500051E342A03308500A6230C185F
:1004A000FF229F1422308500051E342A0330850068
:1004B000592A22081E02031C3B2A5E2A223085008C
:1004C000051E4A2A03308500A5230C18FF229F141D
:1004D00022308500051E4A2A033085006F2A00005D
:1004E00022081E02031C512A752A22308500051E8F
:1004F000602A03308500A4230C18FF229F142230A9
:100500008500051E602A03308500A72322081E02ED
:10051000031C672A8B2A22308500051E772A0330A8
:1005200085001030A7000328A70A9F14051E1C2869
:10053000051E1C28051E1C2822081E02031C1C2840
:100540000C1C952AFF2203308500952A051EAC2A33
:100550000330850001300228051EB22A03308500D1
:1005600002300228051EB72A033085000128051E27
:10057000BC2A033085000128051EC12A03308500EE
:100580000128051EC62A033085000128051ECB2A36
:10059000033085000128051E772A033085000128D5
:1005A00022308500051E3829033085005929223064
:1005B0008500051E532903308500752922308500EA
:1005C000051EA62903308500E52AC92922308500A9
:1005D000051EC22903308500ED2AE5290800A8235D
:1005E000AA00A923AB00A001A101A201A301A401BB
:1005F000A501A601A701A801A90183015B2B223057
:1006000085000C10AB0B0800203085009F14A4233C
:100610009F14AB141030A1000230A0002608A400E3
:100620009F141E08A600A500A7239F141E08A60657
:10063000A600031D4E2B2408A6069F1403194B2B5E
:10064000A6061E08A606A600031D4E2B9F14A5068F
:1006500003193E2B1E08A606A600031DA001A00A32
:100660009F141E08A606A600031DA001A00A2019BB
:100670003E2BA10B302B1E08A607A60C22308500AE
:100680009F14A61F502B831626089B001C141A08C3
:100690008312A2000800223085000800A001302B40
:1006A0008316260D9B001C141A0C8312A200230231
:1006B0000318A20708001C308316850004309F0031
:1006C000831222308500073083129900FF30831691
:1006D0009500FF23831690008312A601A90107301D
:1006E0008316810083128E018F01313090008312B6
:1006F00009309F003830A3000C1C7C2B0C10AB0B76
:100700007C2BAB0AFF22AA0A22081E020230031C1D
:10071000AA02442085009F14051E952B0C1C832BD8
:10072000FF229F14932B0000832B03302A0203180F
:10073000AA03051A9C2B952BA523892B0028A723F8
:10074000A723A723A723080000000000000008003B
:04075000013402343A
:0E07F000F92B080001340134CA3442340800E9
:02400E00D431AB
:1042000065006500660067006800680069006A0074
:104210006B006C006C006D006E006F007000700031
:1042200071007200730073007400750076007700EF
:104230007700780079007A007B007B007C007D00AD
:104240007E007F007F00800081008200820083006A
:1042500084008500860086008700880089008A0027
:104260008A008B008C008D008E008E008F009000E5
:1042700091009100920093009400950095009600A3
:1042800097009800990099009A009B009C009D005F
:104290009D009E009F00A000A000A100A200A3001E
:1042A000A400A400A500A600A700A800A800A900DB
:1042B000AA00AB00AC00AC00AD00AE00AF00AF0098
:1042C000B000B100B200B300B300B400B500B60056
:1042D000B700B700B800B900BA00BB00BB00BC0013
:1042E000BD00BE00BE00BF00C000C100C200C200D1
:1042F000C300C400C500C600C600C700C800C9008E
:00000001FF
