:02000000C42A10
:1000100003308500051E223431085A3C8207000057
:1000200000000000000000000000000000000000D0
:1000300000000000000000000000000000000000C0
:1000400000000000000000000000000000000000B0
:1000500000000000000000009F142E280000223045
:100060008500051E22340C18223403308500310827
:100070005A3C820700000000000000000000000061
:100080000000000000000000000000000000000070
:100090000000000000000000000000000000000060
:1000A0000000000000000000000000000000B10A95
:1000B00029081E020230031CB102223085003108DB
:1000C0008207B10A2234C528BF28C028D428CF28E7
:1000D000CA280D2AAF10062AAF10002AAF10FA293D
:1000E000AF10F429AF10EE29AF10E829AF10E229C4
:1000F000AF10DC29D728DA28DD28E028E328E62815
:10010000E928EC28EF28162AF228FB2804290D29D3
:1001100016291B29272933293F294B294F295A29D9
:10012000652970297B297F298A299529A029A42955
:10013000AF29BA29BE29C929CD29D82908280828D4
:10014000082808280828082808280828082808282F
:10015000082808280828082808280828082808281F
:10016000082808280828082808280828082808280F
:1001700008280828082808280334B10303349D23DD
:100180000330850022308500051A033085002230B7
:10019000850022340330850022308500051A0330A3
:1001A000850022308500051A033085002234E221C3
:1001B0008500542AE82185004D2AEE218500462A33
:1001C000F42185003F2AFA218500382A0022850083
:1001D000312A062285002A2A0D228500232A13228D
:1001E00085001C2A24228500051E22340130A80027
:1001F00003308500592A32228500051E223403303F
:10020000A80003308500592A40228500051E2234AB
:100210000530A80003308500592A4E228500051EAE
:1002200022340730A80003308500592A0930A8007D
:1002300003308500592A0730A80003308500592271
:100240008500051E2234033085000130632A053005
:10025000A8000330850059228500051E2234033092
:1002600085000330632A0330A8000330850059223B
:100270008500051E2234033085000530632A0130D5
:10028000A8000330850059228500051E2234033062
:1002900085000730632A033085000930632A033064
:1002A0008500073063228500051E22340330850057
:1002B00001306E2A03308500053063228500051E5B
:1002C00022340330850003306E2A0330850003306A
:1002D00063228500051E22340330850005306E2A16
:1002E00003308500013063228500051E223403306F
:1002F000850007306E2A0330850009306E2A0330EE
:10030000850007306E228500051E223403308500EB
:1003100001307B2A0330850004306E228500051EE3
:1003200022340330850004307B2A033085000130FD
:100330006E228500051E22340330850007307B2A9B
:100340000330850009307B2A0330850006307B228C
:100350008500051E22340330850002308A2A0330CE
:10036000850002307B228500051E22340330850083
:1003700006308A2A0330850009308A2A0330850036
:1003800004308A228500051E2234033085000430A3
:100390009B2A0330850009309B2A033085000430F6
:1003A0009B228500051E2234033085000430AE2ACE
:1003B000033085000930AE2A03308500000022306A
:1003C0008500051A03308500000022308500051ADB
:1003D00003308500000022308500051A03308500B7
:1003E000000022308500051A03308500000022300D
:1003F0008500051A03308500000022308500051AAB
:1004000003308500000022308500051A0330AF1C40
:100410008500850022308500051A03308500AF1065
:1004200022308500051A0330850022340330850010
:10043000192A223085000000051A03308500202A81
:10044000223085000000051A03308500272A22305B
:1004500085000000051A033085002E2A2230850011
:100460000000051A03308500352A2230850000007F
:10047000051A033085003C2A223085000000051A49
:1004800003308500432A223085000000051A03301E
:1004900085004A2A223085000000051A03308500B5
:1004A000512A223085000000051A033085002230D1
:1004B0000800000022308500051E2234033085002C
:1004C000A80B5A2A2234A80022308500051E2234A7
:1004D000033085000000A80B642A2234A800000025
:1004E00022308500051E223403308500051E22348B
:1004F000A80B702A2234A800051E22342230850061
:10050000051E2234033085000000051E2234A80B8E
:100510007E2A2234A800051E2234000022308500E5
:10052000051E223403308500051E2234051E2234A8
:10053000A80B8E2A2234A800051E2234051E223460
:1005400022308500051E223403308500051E22342A
:10055000051E22340000A80BA02A2234A800051E84
:100560002234051E2234000022308500051E22346C
:1005700003308500051E2234051E2234051E223458
:10058000A80BB42A22340800A323B100A423B2008C
:10059000A701A801A901AA01AB01AC01AD01AE01FF
:1005A000AF01B0018301D42A1C30831685000430CA
:1005B0009F00831222308500073083129900FF309C
:1005C00083169500FF23831690008312B001AF01BC
:1005D00007308316810083128E018F013130900025
:1005E000831209309F003830AA000C1CF52A0C1029
:1005F000B20BF52AB2143F232E08AB002B087C2344
:100600002D08A9002A020318A9079F140C10051A27
:10061000122B051E2F2B3014B10A29081E0202309E
:10062000031CB1025F2085009F140C1C092BB20B28
:10063000052BB2143F232E082B060319052B9F14FC
:100640002E08AB00051E262B5F2085002B087C237F
:100650009F142D08A9002A020318A907052B223090
:100660008500301C142BB10329081E020318B103A6
:10067000B103B11BB101B10A3010142B0028223094
:100680008500203085001F3084009F140730A800AB
:10069000A701A70AAE01840A1E089F148000AE06B7
:1006A000AE00031DA701A70A2719772B1E089F1468
:1006B0008007800CAE06AE00031DA701A70A27190C
:1006C000772BA80B4B2B223085009F140008840346
:1006D0008007000CA80084039F140008840380078F
:1006E000000CAE0028089F14AE07AE0C08002230A4
:1006F00085009F1408000800AD01AC01AC07AC0DEB
:10070000AD0DAC070318AD0A0310AC0DAD0DAC0D6B
:10071000AD0DAC0DAD0DAC0DAD0DAC070318AD0AB4
:100720000310AC0DAD0DAC070318AD0A0310AC0DF2
:10073000AD0D0800A223A223A223A22308000000DB
:0A074000000000000800013402343C
:0A07F40000340A34C6344234080011
:02400E00D431AB
:00000001FF
