:10000000ED2A0330A90729088207942A072808281F
:1000100009280A280B28000000000000000000004A
:10002000000000000000000000001928742A672A60
:10003000482A0C18F8229F1401308500851EA62A34
:10004000073085002908820700002628272828284D
:1000500029282A28000000000000000000000000FD
:10006000000000000000000022081E0203183828CB
:10007000FF30031C0130A90701308500851EA62A28
:100080000730850043280328AA012C088207AC0A00
:1000900001347F2879287A288E2889288428DD2829
:1000A0002B10D6282B10D0282B10CA282B10C42890
:1000B0002B10BE282B10B8282B10B2282B10AC28E0
:1000C0009128942897289A289D28A028A328A62814
:1000D000A928E62875287528752875287528752893
:1000E000752875283829AC0338292C08553EAA00F4
:1000F000E628B6230730850001308500851A0730D1
:10010000850001308500013407308500013085000D
:10011000851A0730850001308500851A0730850073
:100120000134B22085002D29B82085002529BE2064
:1001300085001D29C42085001529CA2085000D29A8
:10014000D02085000529D6208500FD28DD208500EA
:10015000F528E3208500ED280730850000000130F8
:100160008500851A07308500000001308500851A5A
:1001700007308500000001308500851A07308500B2
:10018000000001308500851A07308500000001302D
:100190008500851A07308500000001308500851A2A
:1001A00007308500000001308500851A07302B1CC0
:1001B0008500850001308500851A073085002B10E9
:1001C00001308500851A073085000134073085002D
:1001D000AA1BEA2801308500AA0A851A0730850083
:1001E000AA1BF22801308500AA0A851A073085006B
:1001F000AA1BFA2801308500AA0A851A0730850053
:10020000AA1B022901308500AA0A851A0730850039
:10021000AA1B0A2901308500AA0A851A0730850021
:10022000AA1B122901308500AA0A851A0730850009
:10023000AA1B1A2901308500AA0A851A07308500F1
:10024000AA1B222901308500AA0A851A07308500D9
:10025000AA1B2A2901308500AA0A851A07308500C1
:100260000130080001308500AC03851A44280134B0
:10027000851E3429073085000C18F8229F140130A0
:100280008500851E34290730850022081E020000E3
:1002900001308500851E342907308500031C322972
:1002A000000001308500851E3829073085000C18B4
:1002B000F8229F1401308500851E382907308500FB
:1002C00022081E02000001308500851E38290730F3
:1002D0008500031C3F29000001308500851E53293D
:1002E0000730850000000C18F8229F1401308500AB
:1002F000851E53290730850022081E0200000130A8
:100300008500851E532907308500031CCE2A000076
:1003100001308500851E6E290730850000000C180D
:10032000F8229F1401308500851E6E290730850054
:1003300022081E029B2901308500851E6E29073088
:100340008500031CD52A000001308500851E8A29FE
:100350000730850000000C18F8229F14013085003A
:10036000851E8A290730850022081E02B729013020
:100370008500851E8A2907308500031C9129C02924
:1003800001308500851EA62907308500C7290C1875
:10039000F8229F1401308500851EA62907308500AC
:1003A00022081E02D32901308500851EA6290730A8
:1003B0008500031CAD29DC2901308500851EC2297A
:1003C00007308500E3290C18F8229F1401308500BE
:1003D000851EC2290730850022081E02031CDC2A64
:1003E000000001308500851EDE2907308500F829D0
:1003F00000000C18F8229F1401308500851EDE29AC
:100400000730850022081E02031CE42A0000013088
:100410008500851EF329073085000E2A00000C1880
:10042000F8229F1401308500851EF32907308500CE
:1004300022081E02031CFB291D2A01308500851E8F
:10044000092A07308500BB230C18F8229F140130BD
:100450008500851E092A0730850022081E02031C1C
:10046000112A322A01308500851E1F2A0730850097
:10047000BB230C18F8229F1401308500851E1F2A0B
:1004800007308500000022081E02031C262A482A85
:1004900001308500851E342A07308500BA230C18E8
:1004A000F8229F1401308500851E342A073085000C
:1004B000592A22081E02031C3B2A5E2A01308500AD
:1004C000851E4A2A07308500B9230C18F8229F148C
:1004D00001308500851E4A2A073085006F2A0000FA
:1004E00022081E02031C512A752A01308500851E30
:1004F000602A07308500B8230C18F8229F140130B9
:100500008500851E602A07308500BB2322081E0255
:10051000031C672A8B2A01308500851E772A073045
:1005200085001030A9000328A90A9F14851E1C28E5
:10053000851E1C28851E1C2822081E02031C1C2840
:100540000C1C952AF82207308500952A851EAC2AB6
:100550000730850001300228851EB22A0730850049
:1005600002300228851EB72A073085000128851E23
:10057000BC2A073085000128851EBF2A0128851E58
:10058000C42A073085000128851EC92A0730850046
:100590000128851E772A0730850001280130850053
:1005A000851E382907308500592901308500851EB0
:1005B000532907308500752901308500851EA6293D
:1005C00007308500E32AC92901308500851EC2292C
:1005D00007308500EB2AE5290800C423AC00C523B9
:1005E000AD008313203084002C30BC238301512BB9
:1005F000013085000C10AD0B0800003085009F1401
:10060000B8239F14AD141030A1000230A000082BB5
:100610009F141E08A800A700BB239F141E08A8064D
:10062000A800031D472B2408A8069F140319442B78
:10063000A8061E08A806A800031D472B9F14A7069E
:100640000319362B1E08A806A800031DA001A00A46
:100650009F141E08A806A800031DA001A00A2019C7
:10066000362BA10B282B1E08A807A80C01308500EB
:100670002808A4009F14A41B492B95232608A20038
:1006800023020318A2070800013085000800A0011A
:10069000282B831628089B001C141A088312A2001A
:1006A000080038308316850008309F00831201301F
:1006B0008500073083129900FF3083169500FF23D1
:1006C000831690008312A401AB01073083168100CA
:1006D00083128E018F013130900083120D309F0004
:1006E0003830A3000C1C722B0C10AD0B722BAD0A12
:1006F000F822AC0A22081E020230031CAC0244207D
:1007000085009F14851E8B2B0C1C792BF8229F14BF
:10071000892B0000792B03302C020318AC03851AB7
:10072000922B8B2BB9237F2B0028A601A501A507AF
:10073000A50DA60DA5070318A60A0310A50DA60D65
:10074000A50DA60DA50DA60DA50DA60DA5070318B3
:10075000A60A0310A50DA60DA5070318A60A0310E7
:10076000A50DA60D0800BB23BB23BB23BB2308009C
:10077000000000000000080064008001840A0406F4
:0C078000031900340406BD2B01340234C0
:0E07F000F92B080001340034C63446340800EA
:02400E00D431AB
:104200006300630064006500660066006700680084
:10421000690069006A006B006C006D006D006E0043
:104220006F00700070007100720073007400740001
:104230007500760077007700780079007A007A00C0
:104240007B007C007D007E007E007F00800081007E
:10425000810082008300840085008500860087003D
:104260008800880089008A008B008B008C008D00FC
:104270008E008F008F0090009100920092009300BA
:104280009400950096009600970098009900990078
:104290009A009B009C009D009D009E009F00A00036
:1042A000A000A100A200A300A300A400A500A600F6
:1042B000A700A700A800A900AA00AA00AB00AC00B4
:1042C000AD00AE00AE00AF00B000B100B100B20072
:1042D000B300B400B400B500B600B700B800B80031
:1042E000B900BA00BB00BB00BC00BD00BE00BF00EF
:1042F000BF00C000C100C200C200C300C400C500AE
:00000001FF
