:02000000852950
:10000800AB00030EAA003008FE398500B000B30B20
:100018001528AC140230B300B20B15282C14083084
:10002800B2000B112A0E8300AB0E2B0E090008003C
:10008000220882075D2862286928762882288A2823
:100090009728A528A728A928AB28AD28AF28B128DC
:1000A000B328B528B728C928DC28F1280329162940
:1000B00028293C29512969297F293008FE398500E2
:1000C000B0000800300801388500FE398500B00016
:1000D0000800300801388500FE39850015231323F8
:1000E00001388500FE398500B0000800300801386D
:1000F0008500FE398500152301388500FE3985000D
:10010000B00008003008013885000000FE39850085
:10011000B0000800300801388500FE398500122340
:1001200001388500FE3900008500B0000800300865
:10013000013885000000FE39850012230138850052
:10014000FE3900008500B00008000130B9280230F7
:10015000B9280330B9280430B9280630B928083046
:10016000B9280B30B9280E30B9281230B928173009
:10017000B928A1003008013885000000FE3985004B
:10018000A10BBB28B000013885000000FE398500B6
:1001900008001130A100300801388500000000007F
:1001A000FE398500A10BCC28B00001388500000085
:1001B0000000FE39850008000E30A100300801382B
:1001C0008500000000000000FE398500A10BDF283B
:1001D000B00001388500000000000000FE398500F5
:1001E00008000B30A1003008013885001523FE39C6
:1001F00085000000A10BF428B0000138850015230C
:10020000FE39850008000930A1003008013885005A
:100210001423FE39850000000000A10B0629B00060
:10022000013885001423FE39850008000730A1003D
:100230003008013885001223FE3985001523A10BF3
:100240001929B000013885001223FE398500080005
:100250000530A10030080138850015231323FE392D
:1002600085001223A10B2B29B0000138850015232E
:100270001323FE39850008000430A100300801383E
:10028000850010231423FE39850015231323A10BA9
:100290003F29B0000138850010231423FE39850062
:1002A00008000330A1003008013885000E23FE3914
:1002B000850010231423A10B5429B00001388500B8
:1002C0000E23FE3985000800FE3985000F23142314
:1002D0006E290230A1003008051864290138850014
:1002E0000F231223FE3985000E23A10B6E29B000C7
:1002F000013885000F231223FE39850008003008DD
:1003000001388500B000080008001E23B1001F233B
:10031000B2002023B3008313203084003130162331
:10032000830192291C308316850024309F0083129C
:10033000850183169001073083129900FF308316E0
:100340009500FF238316900083120508B40034083B
:10035000B000AF01AC01AE01AD010330B400340810
:10036000B70007308316810083128101A0308B0013
:10037000831209309F00B014300885000D230D232F
:100380009F149F18C1291E08A50083122508093E45
:10039000B400003003180130B5003508803A803CC5
:1003A000031DD429340825020318D729D829DD29AB
:1003B00009308312B4003408A50783122C1CDE29EF
:1003C000AC013008FE398500B000B010300885005F
:1003D000FB221E08A600B014300885002608A700DE
:1003E0003108BB222908A40025020318A4070630FF
:1003F0002402A3009F14FE300102031C0A2A81017B
:10040000B30B0A2AAC140230B300B20B0A2A2C1424
:100410000830B2009F180A2A24081E020318222A54
:100420000130B7001E08230203181A2AA208031D70
:10043000A2032C2AA2012C2AA2080319242A013083
:10044000B7002C2A03191C2AB70B2C2A0330B7003B
:100450001A302202031CA20A4020AC080319FA2910
:100460002C1C462A3008FE398500B000B010300838
:1004700085002C100330B7002C15AC152C16FB2270
:100480001E08A600B01430088500FA29AC1D4E2ABB
:100490002C1E4C2A2C12FA29AC11FA292C1D602A88
:1004A0002C110330B7002608A7003108BB22290809
:1004B000A40025020318A40706302402A300FA2989
:1004C000AC1CB82AAC100330B700AF10051EAF1437
:1004D0000301AF18013E2F18FF3E00380319752A9B
:1004E0002F10AF182F14AE01792A04302E02031CEE
:1004F000AE0A2F1CA32A03302E02031DA32A0530A7
:100500008312B4003408B107DC303102031C892A9D
:100510008A2A8E2AC730B4003408B1003108393E27
:10052000B4003408B600AD01AD0A9C2A0530B6020D
:100530000130B4003408AD073608031DA02AA12AF3
:10054000962A0310AD0D83122D080319A82AA92A93
:10055000B82A0130AD020310B01E03140318B12AEB
:10056000B42A8312B016B62A8312B012300885005E
:100570008312FA290028A901A801A71FC52AA807E4
:100580000318A90A0310A80DA90D271FCA2AA80736
:100590000318A90A0310A80DA90DA71ED22AA8079F
:1005A0000318A90A0310A80DA90D271EDA2AA80707
:1005B0000318A90A0310A80DA90DA71DE22AA80770
:1005C0000318A90A0310A80DA90D271DEA2AA807D8
:1005D0000318A90A0310A80DA90DA71CF22AA80741
:1005E0000318A90A0310A80DA90D271C0800A807C5
:1005F0000318A90A08000530A100A0019F149F1844
:10060000FF2A1E08FE3E200203180800A10B092B3A
:1006100008001E08A000FE2A080015231523152334
:10062000152308000000000000000800640080019D
:10063000840A0406031900340406172BCC3408344A
:02064000023482
:0A07F40000340134003441340800E1
:02400E00D431AB
:00000001FF
