:10000000EF2A0330A80728088207942A072808281F
:1000100009280A280B28000000000000000000004A
:10002000000000000000000000001928742A672A60
:10003000482A0C1800239F1401308500851DA62A2C
:10004000073085002808820700002628272828284E
:1000500029282A28000000000000000000000000FD
:10006000000000000000000023081E0203183828CA
:10007000FF30031C0130A80701308500851DA62A2A
:100080000730850043280328A9012B088207AB0A03
:1000900001347F2879287A288E2889288428DD2829
:1000A0002A10D6282A10D0282A10CA282A10C42894
:1000B0002A10BE282A10B8282A10B2282A10AC28E4
:1000C0009128942897289A289D28A028A328A62814
:1000D000A928E62875287528752875287528752893
:1000E000752875283829AB0338292B08553EA900F7
:1000F000E628AE23073085000130850085190730DA
:10010000850001308500013407308500013085000D
:100110008519073085000130850085190730850075
:100120000134B22085002D29B82085002529BE2064
:1001300085001D29C42085001529CA2085000D29A8
:10014000D02085000529D6208500FD28DD208500EA
:10015000F528E3208500ED280730850000000130F8
:10016000850085190730850000000130850085195C
:1001700007308500000001308500851907308500B3
:10018000000001308500851907308500000001302E
:10019000850085190730850000000130850085192C
:1001A00007308500000001308500851907302A1CC2
:1001B00085008500013085008519073085002A10EB
:1001C000013085008519073085000134073085002E
:1001D000A91BEA2801308500A90A85190730850086
:1001E000A91BF22801308500A90A8519073085006E
:1001F000A91BFA2801308500A90A85190730850056
:10020000A91B022901308500A90A8519073085003C
:10021000A91B0A2901308500A90A85190730850024
:10022000A91B122901308500A90A8519073085000C
:10023000A91B1A2901308500A90A851907308500F4
:10024000A91B222901308500A90A851907308500DC
:10025000A91B2A2901308500A90A851907308500C4
:100260000130080001308500AB03851944280134B2
:10027000851D3429073085000C1800239F14013098
:100280008500851D34290730850023081E020000E3
:1002900001308500851D342907308500031C322973
:1002A000000001308500851D3829073085000C18B5
:1002B00000239F1401308500851D382907308500F3
:1002C00023081E02000001308500851D38290730F3
:1002D0008500031C3F29000001308500851D53293E
:1002E0000730850000000C1800239F1401308500A2
:1002F000851D53290730850023081E0200000130A8
:100300008500851D532907308500031CD02A000075
:1003100001308500851D6E290730850000000C180E
:1003200000239F1401308500851D6E29073085004C
:1003300023081E029B2901308500851D6E29073088
:100340008500031CD72A000001308500851D8A29FD
:100350000730850000000C1800239F140130850031
:10036000851D8A290730850023081E02B729013020
:100370008500851D8A2907308500031C9129C02925
:1003800001308500851DA62907308500C7290C1876
:1003900000239F1401308500851DA62907308500A4
:1003A00023081E02D32901308500851DA6290730A8
:1003B0008500031CAD29DC2901308500851DC2297B
:1003C00007308500E3290C1800239F1401308500B5
:1003D000851DC2290730850023081E02031CDE2A62
:1003E000000001308500851DDE2907308500F829D1
:1003F00000000C1800239F1401308500851DDE29A4
:100400000730850023081E02031CE62A0000013085
:100410008500851DF329073085000E2A00000C1881
:1004200000239F1401308500851DF32907308500C6
:1004300023081E02031CFB291D2A01308500851D8F
:10044000092A07308500B3230C1800239F140130BC
:100450008500851D092A0730850023081E02031C1C
:10046000112A322A01308500851D1F2A0730850098
:10047000B3230C1800239F1401308500851D1F2A0B
:1004800007308500000023081E02031C262A482A84
:1004900001308500851D342A07308500B2230C18F1
:1004A00000239F1401308500851D342A0730850004
:1004B000592A23081E02031C3B2A5E2A01308500AC
:1004C000851D4A2A07308500B1230C1800239F148C
:1004D00001308500851D4A2A073085006F2A0000FB
:1004E00023081E02031C512A752A01308500851D30
:1004F000602A07308500B0230C1800239F140130B8
:100500008500851D602A07308500B32323081E025D
:10051000031C672A8B2A01308500851D772A073046
:1005200085001030A8000328A80A9F14851D1C28E8
:10053000851D1C28851D1C2823081E02031C1C2841
:100540000C1C952A002307308500952A851DAC2AAE
:100550000730850001300228851DB22A073085004A
:1005600002300228851DB72A073085000128851D25
:10057000BC2A073085000128851DC12A0730850067
:100580000128851DC62A073085000128851DCB2A34
:10059000073085000128851D772A0730850001284E
:1005A00001308500851D3829073085005929013023
:1005B0008500851D53290730850075290130850088
:1005C000851DA62907308500E52AC9290130850047
:1005D000851DC22907308500ED2AE5290800B423CE
:1005E000AB00B523AC00A001A101A201A301A401AD
:1005F000A501A601A701A801A901AA018301632BF6
:10060000013085000C10AC0B0800003085009F14F1
:1006100020082502031C80160318801200009F1476
:10062000AC141030A2000230A1002708A5009F14CE
:100630001E08A700A600B3239F141E08A706A70044
:10064000031D562B2508A7069F140319522BA70636
:100650001E08A706A700031D562B9F14A606031904
:10066000452B1E08A706A700031DA101A10A9F1480
:100670001E08A706A700031DA101A10A2119452BE9
:10068000A20B372B1E08A707A70C013085009F146B
:10069000A71F582B831627089B001C141A088312C7
:1006A000A3000800A706013085000800A101372B30
:1006B0008316270D9B001C141A0C8312A30024021E
:1006C0000318A307080038308316850008309F0000
:1006D000831201308500073083129900FF308316A2
:1006E0009500FF2383169000F823A0008530840036
:1006F0008312A701AA0107308316810083128E019D
:100700008F013130900083120D309F003830A400EB
:100710000C1C882B0C10AC0B882BAC0A0023AB0AEA
:1007200023081E020230031CAB02442085009F14E4
:10073000851DA12B0C1C8F2B00239F149F2B0000C9
:100740008F2B03302B020318AB038519A82BA12B89
:10075000B123952B0028B323B323B323B32308007D
:0C0760000000000000000800013402341A
:1007EC00F72B08008A34080001340334C83455341C
:0207FC000800F3
:02400E00D431AB
:10420000640064006500660067006700680069007C
:104210006A006B006B006C006D006E006E006F003A
:1042200070007100720072007300740075007500F8
:10423000760077007800790079007A007B007C00B6
:104240007D007D007E007F00800080008100820074
:104250008300840084008500860087008700880032
:1042600089008A008B008B008C008D008E008E00F0
:104270008F009000910092009200930094009500AE
:104280009600960097009800990099009A009B006C
:104290009C009D009D009E009F00A000A000A1002A
:1042A000A200A300A400A400A500A600A700A700E8
:1042B000A800A900AA00AB00AB00AC00AD00AE00A6
:1042C000AF00AF00B000B100B200B200B300B40064
:1042D000B500B600B600B700B800B900B900BA0022
:1042E000BB00BC00BD00BD00BE00BF00C000C000E0
:1042F000C100C200C300C400C400C500C600C7009E
:00000001FF
