:02000000B6291F
:100080002C0882075F28602864286A28772884283B
:100090008B289928A828B628B828BC28BE28C028AC
:1000A000C228C628C828CA28E42803291E293029BE
:1000B000422955296A297F299829B129B029AC0AF2
:1000C00001308500AB0008002B08063A8500063A8F
:1000D000850008002B08063A8500063A8500C622EE
:1000E000851E0800063A8500063A850008002B08A0
:1000F000063A8500063A85007D28851E0800063AE6
:100100008500063A850008002B08063A85000000A5
:10011000063A850008002B08063A8500063A850055
:10012000CA22851E0800063A8500063A00008500AE
:1001300008002B08063A85000000063A8500CA220E
:10014000851E0800063A8500063A00008500080072
:100150002B08063A85000000063A8500851E080037
:10016000063A85000000063A850008000130CE28D6
:100170000230A1002B08D7280230CE280330CE2829
:100180000430CE280630A1002B08D7280730CE280F
:100190000930CE280C30A1002B08D728A1002B084D
:1001A000063A85000000063A8500851E0800063ADA
:1001B00085000000063A8500A10BD028063A85008C
:1001C0000000063A850008000830A1002B08063A16
:1001D0008500EA28063A8500851E0800063A850053
:1001E000F128063A8500A10BE728851E0800063A8B
:1001F0008500FA28063A8500FD28063A8500002980
:10020000063A850008000730A1002B08063A850051
:1002100009290000063A85000000851E0800063AFC
:10022000850012290000063A8500A10B0629063A2E
:1002300085001A290000063A850008000B30A1004D
:100240002B08063A8500CB22063A8500851E080059
:10025000A10B2129063A8500CB22063A8500080029
:100260000930A1002B08063A8500CA22063A85000B
:10027000851E0800A10B3329063A8500CA22063ADA
:10028000850008000730A1002B08063A8500C82227
:10029000063A85004B29851E0800A10B4529063A20
:1002A0008500C822063A850008000530A1002B0809
:1002B000063A8500CB22C922063A8500CA22851E4D
:1002C0000800A10B5829063A8500CB22C922063A1C
:1002D000850008000430A1002B08063A8500C622DC
:1002E000CA22063A8500C622851E0800A10B6D2988
:1002F000063A8500C622CA22063A85000800033065
:10030000A1002B08063A8500C422063A8500CB22BC
:10031000C822851E0800A10B8229063A8500C42246
:10032000063A85000800063A8500C522CA229D29A2
:100330000230A1002B0885189329063A8500C522B2
:10034000C822063A8500C622C922851E0800A10BD4
:100350009D29063A8500C522C822063A8500080074
:10036000AC0307308500AB0008000800D422AC00C5
:10037000D522AD008313203084002C30CC228301A1
:10038000C12938308316850028309F008312013040
:100390008500AB00073083129900FF30831695006B
:1003A000FF23831690008312AA01A9010730831648
:1003B0008100831281018B0183120D309F00C322C3
:1003C000C3229F149F18E2291E08A4008312240848
:1003D000093EAE00003003180130AF002F08803A0C
:1003E000803C031DF5292E0824020318F829F92959
:1003F000FE2909308312AE002E08A40783120B1DBC
:10040000FF290B11AD0BFF291030AD000130850025
:10041000AB0000308500AB00B1221E08A6002B14F3
:100420002B088500260893222808A300240203181D
:10043000A30706302302A2009F141E2A0000851E77
:10044000822A2A14AC0A23081E020230031CAC02C2
:1004500040209F140B1D1F2A29180800AD0B7F2A6E
:100460001030AD00291401308500AB00003085004C
:10047000AB00B12201308500AB001E08A5009F141F
:1004800000001F222508260603197E2AA801A701BD
:100490009F1400001F222508A600A707A70DA80D7E
:1004A000A7070318A80A0310A70DA80D9F140000A2
:1004B0001F2225080310A70DA80D0310A70DA80DD6
:1004C000A7070318A80A0310A70DA80D0310A70D6E
:1004D000A80D9F1400001F222508A7070318A80ACB
:1004E0000310A70DA80D2808A30024020318A307D2
:1004F0009F1400001F2206302302A20029109F141F
:100500000B111F2A01308500AB002A1C292AAC03DD
:1005100023081E020318AC03AC03AC1BAC01AC0AED
:100520002A10292A0028A801A701A707A70DA80DAE
:10053000A7070318A80A0310A70DA80DA70DA80D5B
:10054000A70DA80DA7070318A80A0310A70DA80D4B
:10055000A70DA80DA7070318A80A0310A70DA80D3B
:1005600008000530A100A0019F149F18B52A1E089D
:10057000FE3E200203180800A10BBF2A08001E0837
:10058000A000B42A0800CB22CB22CB22CB22080029
:10059000000000000000080064008001840A0406D6
:0C05A000031900340406CD2A0134103485
:0A07F40000340834CA34463408000B
:02400E00D431AB
:00000001FF
