:10000000EF2A0330A80728088207942A072808281F
:1000100009280A280B28000000000000000000004A
:10002000000000000000000000001928742A672A60
:10003000482A0C1800239F1422308500051EA62A8A
:100040000330850028088207000026282728282852
:1000500029282A28000000000000000000000000FD
:10006000000000000000000023081E0203183828CA
:10007000FF30031C0130A80722308500051EA62A88
:100080000330850043280328A9012B088207AB0A07
:1000900022347F2879287A288E2889288428DD2808
:1000A0002A10D6282A10D0282A10CA282A10C42894
:1000B0002A10BE282A10B8282A10B2282A10AC28E4
:1000C0009128942897289A289D28A028A328A62814
:1000D000A928E62875287528752875287528752893
:1000E000752875283829AB0338292B08553EA900F7
:1000F000E628A4230330850022308500051A03304A
:1001000085002230850022340330850022308500AE
:10011000051A0330850022308500051A033085005A
:100120002234B22085002D29B82085002529BE2043
:1001300085001D29C42085001529CA2085000D29A8
:10014000D02085000529D6208500FD28DD208500EA
:10015000F528E3208500ED280330850000002230DB
:100160008500051A03308500000022308500051A3D
:1001700003308500000022308500051A0330850019
:10018000000022308500051A03308500000022306F
:100190008500051A03308500000022308500051A0D
:1001A00003308500000022308500051A03302A1C28
:1001B0008500850022308500051A033085002A104D
:1001C00022308500051A0330850022340330850073
:1001D000A91BEA2822308500A90A051A03308500E8
:1001E000A91BF22822308500A90A051A03308500D0
:1001F000A91BFA2822308500A90A051A03308500B8
:10020000A91B022922308500A90A051A033085009E
:10021000A91B0A2922308500A90A051A0330850086
:10022000A91B122922308500A90A051A033085006E
:10023000A91B1A2922308500A90A051A0330850056
:10024000A91B222922308500A90A051A033085003E
:10025000A91B2A2922308500A90A051A0330850026
:100260002230080022308500AB03051A44282234CE
:10027000051E3429033085000C1800239F142230FA
:100280008500051E34290330850023081E02000066
:1002900022308500051E342903308500031C3229D5
:1002A000000022308500051E3829033085000C1817
:1002B00000239F1422308500051E38290330850055
:1002C00023081E02000022308500051E3829033055
:1002D0008500031C3F29000022308500051E53299C
:1002E0000330850000000C1800239F142230850085
:1002F000051E53290330850023081E02000022300A
:100300008500051E532903308500031CD02A0000F8
:1003100022308500051E6E290330850000000C1870
:1003200000239F1422308500051E6E2903308500AE
:1003300023081E029B2922308500051E6E290330EA
:100340008500031CD72A000022308500051E8A295B
:100350000330850000000C1800239F142230850014
:10036000051E8A290330850023081E02B729223082
:100370008500051E8A2903308500031C9129C029A8
:1003800022308500051EA62903308500C7290C18D8
:1003900000239F1422308500051EA6290330850006
:1003A00023081E02D32922308500051EA62903300A
:1003B0008500031CAD29DC2922308500051EC229D9
:1003C00003308500E3290C1800239F142230850098
:1003D000051EC2290330850023081E02031CDE2AE5
:1003E000000022308500051EDE2903308500F82933
:1003F00000000C1800239F1422308500051EDE2902
:100400000330850023081E02031CE62A0000223068
:100410008500051EF329033085000E2A00000C1804
:1004200000239F1422308500051EF3290330850028
:1004300023081E02031CFB291D2A22308500051EED
:10044000092A03308500A9230C1800239F142230A9
:100450008500051E092A0330850023081E02031C9F
:10046000112A322A22308500051E1F2A03308500FA
:10047000A9230C1800239F1422308500051E1F2A73
:1004800003308500000023081E02031C262A482A88
:1004900022308500051E342A03308500A8230C185D
:1004A00000239F1422308500051E342A0330850066
:1004B000592A23081E02031C3B2A5E2A223085008B
:1004C000051E4A2A03308500A7230C1800239F1419
:1004D00022308500051E4A2A033085006F2A00005D
:1004E00023081E02031C512A752A22308500051E8E
:1004F000602A03308500A6230C1800239F142230A5
:100500008500051E602A03308500A92323081E02EA
:10051000031C672A8B2A22308500051E772A0330A8
:1005200085001030A8000328A80A9F14051E1C2867
:10053000051E1C28051E1C2823081E02031C1C283F
:100540000C1C952A002303308500952A051EAC2A31
:100550000330850001300228051EB22A03308500D1
:1005600002300228051EB72A033085000128051E27
:10057000BC2A033085000128051EC12A03308500EE
:100580000128051EC62A033085000128051ECB2A36
:10059000033085000128051E772A033085000128D5
:1005A00022308500051E3829033085005929223064
:1005B0008500051E532903308500752922308500EA
:1005C000051EA62903308500E52AC92922308500A9
:1005D000051EC22903308500ED2AE5290800F8230D
:1005E000AB00F923AC00A001A101A201A301A40169
:1005F000A501A601A701A801A901AA0183015D2BFC
:10060000223085000C10AC0B0800203085009F14B0
:10061000A6239F14AC141030A2000230A1002708BA
:10062000A5009F141E08A700A600A9239F141E085A
:10063000A706A700031D502B2508A7069F14031922
:100640004C2BA7061E08A706A700031D502B9F14BE
:10065000A60603193F2B1E08A706A700031DA1012C
:10066000A10A9F141E08A706A700031DA101A10A45
:1006700021193F2BA20B312B1E08A707A70C2230F4
:1006800085009F14A71F522B831627089B001C145C
:100690001A088312A3000800A7062230850008006C
:1006A000A101312B8316270D9B001C141A0C8312F9
:1006B000A30024020318A30708001C30831685003A
:1006C00004309F0083122230850007308312990086
:1006D000FF3083169500FF23831690008312A70135
:1006E000AA0107308316810083128E018F013130F9
:1006F0009000831209309F003830A4000C1C7E2B20
:100700000C10AC0B7E2BAC0A0023AB0A23081E0294
:100710000230031CAB02442085009F14051E972B5A
:100720000C1C852B00239F14952B0000852B033078
:100730002B020318AB03051A9E2B972BA7238B2B99
:100740000028A923A923A923A92308000000000049
:04075000000008009D
:1007EC00F72B08000134023401340334C234423490
:0207FC000800F3
:02400E00D431AB
:104200006100610062006300640064006500660094
:1042100067006700680069006A006A006B006C0054
:104220006D006D006E006F00700070007100720014
:1042300073007300740075007600760077007800D4
:1042400079007A007A007B007C007D007D007E0092
:104250007F00800080008100820083008300840052
:1042600085008600860087008800890089008A0012
:104270008B008C008C008D008E008F008F009000D2
:104280009100920093009300940095009600960090
:1042900097009800990099009A009B009C009C0050
:1042A0009D009E009F009F00A000A100A200A20010
:1042B000A300A400A500A500A600A700A800A800D0
:1042C000A900AA00AB00AC00AC00AD00AE00AF008E
:1042D000AF00B000B100B200B200B300B400B5004E
:1042E000B500B600B700B800B800B900BA00BB000E
:1042F000BB00BC00BD00BE00BE00BF00C000C100CE
:00000001FF
