:10000000EF2A0330A70727088207942A0728082821
:1000100009280A280B28000000000000000000004A
:10002000000000000000000000001928742A672A60
:10003000482A0C18FF229F1401308500851EA62A2D
:10004000073085002708820700002628272828284F
:1000500029282A28000000000000000000000000FD
:10006000000000000000000022081E0203183828CB
:10007000FF30031C0130A70701308500851EA62A2A
:100080000730850043280328A8012A088207AA0A06
:1000900001347F2879287A288E2889288428DD2829
:1000A0002910D6282910D0282910CA282910C42898
:1000B0002910BE282910B8282910B2282910AC28E8
:1000C0009128942897289A289D28A028A328A62814
:1000D000A928E62875287528752875287528752893
:1000E000752875283829AA0338292A08553EA800FA
:1000F000E628A2230730850001308500851A0730E5
:10010000850001308500013407308500013085000D
:10011000851A0730850001308500851A0730850073
:100120000134B22085002D29B82085002529BE2064
:1001300085001D29C42085001529CA2085000D29A8
:10014000D02085000529D6208500FD28DD208500EA
:10015000F528E3208500ED280730850000000130F8
:100160008500851A07308500000001308500851A5A
:1001700007308500000001308500851A07308500B2
:10018000000001308500851A07308500000001302D
:100190008500851A07308500000001308500851A2A
:1001A00007308500000001308500851A0730291CC2
:1001B0008500850001308500851A073085002910EB
:1001C00001308500851A073085000134073085002D
:1001D000A81BEA2801308500A80A851A0730850087
:1001E000A81BF22801308500A80A851A073085006F
:1001F000A81BFA2801308500A80A851A0730850057
:10020000A81B022901308500A80A851A073085003D
:10021000A81B0A2901308500A80A851A0730850025
:10022000A81B122901308500A80A851A073085000D
:10023000A81B1A2901308500A80A851A07308500F5
:10024000A81B222901308500A80A851A07308500DD
:10025000A81B2A2901308500A80A851A07308500C5
:100260000130080001308500AA03851A44280134B2
:10027000851E3429073085000C18FF229F14013099
:100280008500851E34290730850022081E020000E3
:1002900001308500851E342907308500031C322972
:1002A000000001308500851E3829073085000C18B4
:1002B000FF229F1401308500851E382907308500F4
:1002C00022081E02000001308500851E38290730F3
:1002D0008500031C3F29000001308500851E53293D
:1002E0000730850000000C18FF229F1401308500A4
:1002F000851E53290730850022081E0200000130A8
:100300008500851E532907308500031CD02A000074
:1003100001308500851E6E290730850000000C180D
:10032000FF229F1401308500851E6E29073085004D
:1003300022081E029B2901308500851E6E29073088
:100340008500031CD72A000001308500851E8A29FC
:100350000730850000000C18FF229F140130850033
:10036000851E8A290730850022081E02B729013020
:100370008500851E8A2907308500031C9129C02924
:1003800001308500851EA62907308500C7290C1875
:10039000FF229F1401308500851EA62907308500A5
:1003A00022081E02D32901308500851EA6290730A8
:1003B0008500031CAD29DC2901308500851EC2297A
:1003C00007308500E3290C18FF229F1401308500B7
:1003D000851EC2290730850022081E02031CDE2A62
:1003E000000001308500851EDE2907308500F829D0
:1003F00000000C18FF229F1401308500851EDE29A5
:100400000730850022081E02031CE62A0000013086
:100410008500851EF329073085000E2A00000C1880
:10042000FF229F1401308500851EF32907308500C7
:1004300022081E02031CFB291D2A01308500851E8F
:10044000092A07308500A7230C18FF229F140130CA
:100450008500851E092A0730850022081E02031C1C
:10046000112A322A01308500851E1F2A0730850097
:10047000A7230C18FF229F1401308500851E1F2A18
:1004800007308500000022081E02031C262A482A85
:1004900001308500851E342A07308500A6230C18FC
:1004A000FF229F1401308500851E342A0730850005
:1004B000592A22081E02031C3B2A5E2A01308500AD
:1004C000851E4A2A07308500A5230C18FF229F1499
:1004D00001308500851E4A2A073085006F2A0000FA
:1004E00022081E02031C512A752A01308500851E30
:1004F000602A07308500A4230C18FF229F140130C6
:100500008500851E602A07308500A72322081E0269
:10051000031C672A8B2A01308500851E772A073045
:1005200085001030A7000328A70A9F14851E1C28E9
:10053000851E1C28851E1C2822081E02031C1C2840
:100540000C1C952AFF2207308500952A851EAC2AAF
:100550000730850001300228851EB22A0730850049
:1005600002300228851EB72A073085000128851E23
:10057000BC2A073085000128851EC12A0730850066
:100580000128851EC62A073085000128851ECB2A32
:10059000073085000128851E772A0730850001284D
:1005A00001308500851E3829073085005929013022
:1005B0008500851E53290730850075290130850087
:1005C000851EA62907308500E52AC9290130850046
:1005D000851EC22907308500ED2AE5290800A823D9
:1005E000AA00A923AB00A001A101A201A301A401BB
:1005F000A501A601A701A801A90183015B2B013078
:1006000085000C10AB0B0800003085009F14A4235C
:100610009F14AB141030A1000230A0002608A400E3
:100620009F141E08A600A500A7239F141E08A60657
:10063000A600031D4E2B2408A6069F1403194B2B5E
:10064000A6061E08A606A600031D4E2B9F14A5068F
:1006500003193E2B1E08A606A600031DA001A00A32
:100660009F141E08A606A600031DA001A00A2019BB
:100670003E2BA10B302B1E08A607A60C01308500CF
:100680009F14A61F502B831626089B001C141A08C3
:100690008312A2000800013085000800A001302B61
:1006A0008316260D9B001C141A0C8312A200230231
:1006B0000318A207080038308316850008309F0011
:1006C000831201308500073083129900FF308316B2
:1006D0009500FF23831690008312A601A90107301D
:1006E0008316810083128E018F01313090008312B6
:1006F0000D309F003830A3000C1C7C2B0C10AB0B72
:100700007C2BAB0AFF22AA0A22081E020230031C1D
:10071000AA02442085009F14851E952B0C1C832B58
:10072000FF229F14932B0000832B03302A0203180F
:10073000AA03851A9C2B952BA523892B0028A72378
:10074000A723A723A723080000000000000008003B
:04075000013402343A
:0E07F000F92B080001340134C23446340800ED
:02400E00D431AB
:104200006100610062006300640064006500660094
:1042100067006700680069006A006A006B006C0054
:104220006D006D006E006F00700070007100720014
:1042300073007300740075007600760077007800D4
:1042400079007A007A007B007C007D007D007E0092
:104250007F00800080008100820083008300840052
:1042600085008600860087008800890089008A0012
:104270008B008C008C008D008E008F008F009000D2
:104280009100920093009300940095009600960090
:1042900097009800990099009A009B009C009C0050
:1042A0009D009E009F009F00A000A100A200A20010
:1042B000A300A400A500A500A600A700A800A800D0
:1042C000A900AA00AB00AC00AC00AD00AE00AF008E
:1042D000AF00B000B100B200B200B300B400B5004E
:1042E000B500B600B700B800B800B900BA00BB000E
:1042F000BB00BC00BD00BE00BE00BF00C000C100CE
:00000001FF
